{
  "contractName": "PricePredict",
  "abi": [
    {
      "constant": true,
      "inputs": [],
      "name": "id",
      "outputs": [
        {
          "name": "",
          "type": "bytes32"
        }
      ],
      "payable": false,
      "stateMutability": "view",
      "type": "function"
    },
    {
      "inputs": [
        {
          "name": "_creator",
          "type": "address"
        },
        {
          "name": "_coin",
          "type": "string"
        },
        {
          "name": "_price",
          "type": "uint256"
        },
        {
          "name": "_time",
          "type": "uint256"
        },
        {
          "name": "_side",
          "type": "int256"
        },
        {
          "name": "_oracle",
          "type": "address"
        },
        {
          "name": "_endpoint",
          "type": "bytes32"
        },
        {
          "name": "_bondage",
          "type": "address"
        },
        {
          "name": "_dispatch",
          "type": "address"
        }
      ],
      "payable": true,
      "stateMutability": "payable",
      "type": "constructor"
    },
    {
      "constant": false,
      "inputs": [
        {
          "name": "_player",
          "type": "address"
        },
        {
          "name": "side",
          "type": "int256"
        }
      ],
      "name": "joinPrediction",
      "outputs": [],
      "payable": true,
      "stateMutability": "payable",
      "type": "function"
    },
    {
      "constant": true,
      "inputs": [],
      "name": "getInfo",
      "outputs": [
        {
          "name": "",
          "type": "string"
        },
        {
          "name": "",
          "type": "uint256"
        },
        {
          "name": "",
          "type": "uint256"
        },
        {
          "name": "",
          "type": "uint256"
        },
        {
          "name": "",
          "type": "address"
        },
        {
          "name": "",
          "type": "bool"
        }
      ],
      "payable": false,
      "stateMutability": "view",
      "type": "function"
    },
    {
      "constant": true,
      "inputs": [],
      "name": "getId",
      "outputs": [
        {
          "name": "",
          "type": "bytes32"
        }
      ],
      "payable": false,
      "stateMutability": "view",
      "type": "function"
    },
    {
      "constant": false,
      "inputs": [
        {
          "name": "_id",
          "type": "bytes32"
        }
      ],
      "name": "setId",
      "outputs": [],
      "payable": false,
      "stateMutability": "nonpayable",
      "type": "function"
    },
    {
      "constant": true,
      "inputs": [],
      "name": "getOracle",
      "outputs": [
        {
          "name": "",
          "type": "address"
        },
        {
          "name": "",
          "type": "bytes32"
        }
      ],
      "payable": false,
      "stateMutability": "view",
      "type": "function"
    },
    {
      "constant": true,
      "inputs": [],
      "name": "getParticipants",
      "outputs": [
        {
          "name": "",
          "type": "address[]"
        },
        {
          "name": "",
          "type": "address[]"
        },
        {
          "name": "",
          "type": "address[]"
        }
      ],
      "payable": false,
      "stateMutability": "view",
      "type": "function"
    },
    {
      "constant": true,
      "inputs": [],
      "name": "getParticipantsNumber",
      "outputs": [
        {
          "name": "",
          "type": "uint256"
        }
      ],
      "payable": false,
      "stateMutability": "view",
      "type": "function"
    },
    {
      "constant": true,
      "inputs": [
        {
          "name": "_side",
          "type": "int256"
        }
      ],
      "name": "getSide",
      "outputs": [
        {
          "name": "",
          "type": "address[]"
        }
      ],
      "payable": false,
      "stateMutability": "view",
      "type": "function"
    },
    {
      "constant": true,
      "inputs": [],
      "name": "canSettle",
      "outputs": [
        {
          "name": "",
          "type": "bool"
        }
      ],
      "payable": false,
      "stateMutability": "view",
      "type": "function"
    },
    {
      "constant": false,
      "inputs": [],
      "name": "settlePrediction",
      "outputs": [
        {
          "name": "",
          "type": "uint256"
        }
      ],
      "payable": false,
      "stateMutability": "nonpayable",
      "type": "function"
    },
    {
      "constant": false,
      "inputs": [
        {
          "name": "_id",
          "type": "uint256"
        },
        {
          "name": "_response",
          "type": "int256[]"
        }
      ],
      "name": "callback",
      "outputs": [],
      "payable": false,
      "stateMutability": "nonpayable",
      "type": "function"
    }
  ],
  "bytecode": "0x6080604052600160005560016002557fffffffffffffffffffffffffffffffffffffffffffffffffffffffffffffffff6003556000600455604051620021e3380380620021e38339810180604052810190808051906020019092919080518201929190602001805190602001909291908051906020019092919080519060200190929190805190602001909291908051906020019092919080519060200190929190805190602001909291905050506000341115156200014d576040517f08c379a00000000000000000000000000000000000000000000000000000000081526004018080602001828103825260218152602001807f4e65656420746f2073656e642065746820746f2062657420746f20637265617481526020017f650000000000000000000000000000000000000000000000000000000000000081525060400191505060405180910390fd5b60018514806200015d5750600085145b806200018857507fffffffffffffffffffffffffffffffffffffffffffffffffffffffffffffffff85145b1515620001fd576040517f08c379a000000000000000000000000000000000000000000000000000000000815260040180806020018281038252600c8152602001807f696e76616c69642073696465000000000000000000000000000000000000000081525060200191505060405180910390fd5b60008611151562000276576040517f08c379a000000000000000000000000000000000000000000000000000000000815260040180806020018281038252601c8152602001807f74696d652068617320746f20626520696e20746865206675747572650000000081525060200191505060405180910390fd5b87600890805190602001906200028e9291906200053a565b508660098190555085600a8190555088600760006101000a81548173ffffffffffffffffffffffffffffffffffffffff021916908373ffffffffffffffffffffffffffffffffffffffff16021790555060408051908101604052808573ffffffffffffffffffffffffffffffffffffffff1681526020018460001916815250601360008201518160000160006101000a81548173ffffffffffffffffffffffffffffffffffffffff021916908373ffffffffffffffffffffffffffffffffffffffff1602179055506020820151816001019060001916905590505060056000868152602001908152602001600020600760009054906101000a900473ffffffffffffffffffffffffffffffffffffffff1690806001815401808255809150509060018203906000526020600020016000909192909190916101000a81548173ffffffffffffffffffffffffffffffffffffffff021916908373ffffffffffffffffffffffffffffffffffffffff160217905550503460066000600760009054906101000a900473ffffffffffffffffffffffffffffffffffffffff1673ffffffffffffffffffffffffffffffffffffffff1673ffffffffffffffffffffffffffffffffffffffff1681526020019081526020016000208190555081601160006101000a81548173ffffffffffffffffffffffffffffffffffffffff021916908373ffffffffffffffffffffffffffffffffffffffff16021790555080601260006101000a81548173ffffffffffffffffffffffffffffffffffffffff021916908373ffffffffffffffffffffffffffffffffffffffff16021790555033601560006101000a81548173ffffffffffffffffffffffffffffffffffffffff021916908373ffffffffffffffffffffffffffffffffffffffff160217905550505050505050505050620005e9565b828054600181600116156101000203166002900490600052602060002090601f016020900481019282601f106200057d57805160ff1916838001178555620005ae565b82800160010185558215620005ae579182015b82811115620005ad57825182559160200191906001019062000590565b5b509050620005bd9190620005c1565b5090565b620005e691905b80821115620005e2576000816000905550600101620005c8565b5090565b90565b611bea80620005f96000396000f3006080604052600436106100ba576000357c0100000000000000000000000000000000000000000000000000000000900463ffffffff1680630abb4fe3146100bf578063336ccb29146100ea57806349bfcf02146101155780635a9b0b89146101465780635aa68ac0146102295780635d1ca63114610325578063833b1fce146103585780638797bf88146103be57806399ff48af146103fe578063af640d0f1461046e578063dbefd04b146104a1578063faf7ba6a14610523575b600080fd5b3480156100cb57600080fd5b506100d4610552565b6040518082815260200191505060405180910390f35b3480156100f657600080fd5b506100ff6105c6565b6040518082815260200191505060405180910390f35b34801561012157600080fd5b506101446004803603810190808035600019169060200190929190505050610aa9565b005b34801561015257600080fd5b5061015b610ab7565b60405180806020018781526020018681526020018581526020018473ffffffffffffffffffffffffffffffffffffffff1673ffffffffffffffffffffffffffffffffffffffff16815260200183151515158152602001828103825288818151815260200191508051906020019080838360005b838110156101e95780820151818401526020810190506101ce565b50505050905090810190601f1680156102165780820380516001836020036101000a031916815260200191505b5097505050505050505060405180910390f35b34801561023557600080fd5b5061023e610bc7565b60405180806020018060200180602001848103845287818151815260200191508051906020019060200280838360005b8381101561028957808201518184015260208101905061026e565b50505050905001848103835286818151815260200191508051906020019060200280838360005b838110156102cb5780820151818401526020810190506102b0565b50505050905001848103825285818151815260200191508051906020019060200280838360005b8381101561030d5780820151818401526020810190506102f2565b50505050905001965050505050505060405180910390f35b34801561033157600080fd5b5061033a610dc9565b60405180826000191660001916815260200191505060405180910390f35b34801561036457600080fd5b5061036d610dd3565b604051808373ffffffffffffffffffffffffffffffffffffffff1673ffffffffffffffffffffffffffffffffffffffff16815260200182600019166000191681526020019250505060405180910390f35b6103fc600480360381019080803573ffffffffffffffffffffffffffffffffffffffff16906020019092919080359060200190929190505050610e0a565b005b34801561040a57600080fd5b5061046c6004803603810190808035906020019092919080359060200190820180359060200190808060200260200160405190810160405280939291908181526020018383602002808284378201915050505050509192919290505050611191565b005b34801561047a57600080fd5b50610483611539565b60405180826000191660001916815260200191505060405180910390f35b3480156104ad57600080fd5b506104cc6004803603810190808035906020019092919050505061153f565b6040518080602001828103825283818151815260200191508051906020019060200280838360005b8381101561050f5780820151818401526020810190506104f4565b505050509050019250505060405180910390f35b34801561052f57600080fd5b506105386115e0565b604051808215151515815260200191505060405180910390f35b6000806005600060018152602001908152602001600020805490506005600080815260200190815260200160002080549050600560007fffffffffffffffffffffffffffffffffffffffffffffffffffffffffffffffff815260200190815260200160002080549050010190508091505090565b60008060608060606000606060003073ffffffffffffffffffffffffffffffffffffffff1631111515610687576040517f08c379a000000000000000000000000000000000000000000000000000000000815260040180806020018281038252602c8152602001807f6e6f206574682062616c616e636520696e207468697320636f6e74726163742c81526020017f2063616e7420736574746c65000000000000000000000000000000000000000081525060400191505060405180910390fd5b600c60009054906101000a900460ff1615151561070c576040517f08c379a000000000000000000000000000000000000000000000000000000000815260040180806020018281038252600f8152602001807f616c726561647920736574746c6564000000000000000000000000000000000081525060200191505060405180910390fd5b610714610552565b95506001861115156107a957600760009054906101000a900473ffffffffffffffffffffffffffffffffffffffff1673ffffffffffffffffffffffffffffffffffffffff166108fc3073ffffffffffffffffffffffffffffffffffffffff16319081150290604051600060405180830381858888f1935050505015801561079f573d6000803e3d6000fd5b5060009650610aa0565b6107b1610bc7565b94509450945082518614156107e8577fffffffffffffffffffffffffffffffffffffffffffffffffffffffffffffffff9150610813565b83518614156107fa5760009150610812565b845186141561080c5760019150610811565b600a91505b5b5b600a82121561082e57610825826115f8565b60009650610aa0565b600160405190808252806020026020018201604052801561085e5781602001602082028038833980820191505090505b509050600a5460010281600081518110151561087657fe5b906020019060200201906000191690816000191681525050601260009054906101000a900473ffffffffffffffffffffffffffffffffffffffff1673ffffffffffffffffffffffffffffffffffffffff16637de7cc66601360000160009054906101000a900473ffffffffffffffffffffffffffffffffffffffff166008601360010154856040518563ffffffff167c0100000000000000000000000000000000000000000000000000000000028152600401808573ffffffffffffffffffffffffffffffffffffffff1673ffffffffffffffffffffffffffffffffffffffff168152602001806020018460001916600019168152602001806020018381038352868181546001816001161561010002031660029004815260200191508054600181600116156101000203166002900480156109f35780601f106109c8576101008083540402835291602001916109f3565b820191906000526020600020905b8154815290600101906020018083116109d657829003601f168201915b5050838103825284818151815260200191508051906020019060200280838360005b83811015610a30578082015181840152602081019050610a15565b505050509050019650505050505050602060405180830381600087803b158015610a5957600080fd5b505af1158015610a6d573d6000803e3d6000fd5b505050506040513d6020811015610a8357600080fd5b8101908080519060200190929190505050600e81905550600e5496505b50505050505090565b806001816000191690555050565b606060008060008060006008600954600a543073ffffffffffffffffffffffffffffffffffffffff1631601360000160009054906101000a900473ffffffffffffffffffffffffffffffffffffffff16600c60009054906101000a900460ff16858054600181600116156101000203166002900480601f016020809104026020016040519081016040528092919081815260200182805460018160011615610100020316600290048015610bac5780601f10610b8157610100808354040283529160200191610bac565b820191906000526020600020905b815481529060010190602001808311610b8f57829003601f168201915b50505050509550955095509550955095509550909192939495565b6060806060600560007fffffffffffffffffffffffffffffffffffffffffffffffffffffffffffffffff815260200190815260200160002060056000808152602001908152602001600020600560006001815260200190815260200160002082805480602002602001604051908101604052809291908181526020018280548015610ca757602002820191906000526020600020905b8160009054906101000a900473ffffffffffffffffffffffffffffffffffffffff1673ffffffffffffffffffffffffffffffffffffffff1681526020019060010190808311610c5d575b5050505050925081805480602002602001604051908101604052809291908181526020018280548015610d2f57602002820191906000526020600020905b8160009054906101000a900473ffffffffffffffffffffffffffffffffffffffff1673ffffffffffffffffffffffffffffffffffffffff1681526020019060010190808311610ce5575b5050505050915080805480602002602001604051908101604052809291908181526020018280548015610db757602002820191906000526020600020905b8160009054906101000a900473ffffffffffffffffffffffffffffffffffffffff1673ffffffffffffffffffffffffffffffffffffffff1681526020019060010190808311610d6d575b50505050509050925092509250909192565b6000600154905090565b600080601360000160009054906101000a900473ffffffffffffffffffffffffffffffffffffffff16601360010154915091509091565b6001811480610e195750600081145b80610e4357507fffffffffffffffffffffffffffffffffffffffffffffffffffffffffffffffff81145b1515610eb7576040517f08c379a000000000000000000000000000000000000000000000000000000000815260040180806020018281038252600c8152602001807f696e76616c69642073696465000000000000000000000000000000000000000081525060200191505060405180910390fd5b600760009054906101000a900473ffffffffffffffffffffffffffffffffffffffff1673ffffffffffffffffffffffffffffffffffffffff168273ffffffffffffffffffffffffffffffffffffffff1614151515610f7d576040517f08c379a000000000000000000000000000000000000000000000000000000000815260040180806020018281038252600f8152602001807f6d616b65722063616e742074616b65000000000000000000000000000000000081525060200191505060405180910390fd5b60003411151561101b576040517f08c379a00000000000000000000000000000000000000000000000000000000081526004018080602001828103825260238152602001807f4e65656420746f20696e636c7564652065746820746f2074616b65207468652081526020017f626574000000000000000000000000000000000000000000000000000000000081525060400191505060405180910390fd5b6000600660008473ffffffffffffffffffffffffffffffffffffffff1673ffffffffffffffffffffffffffffffffffffffff168152602001908152602001600020541415156110d2576040517f08c379a00000000000000000000000000000000000000000000000000000000081526004018080602001828103825260138152602001807f616c726561647920616e7469636970617465640000000000000000000000000081525060200191505060405180910390fd5b34600660008473ffffffffffffffffffffffffffffffffffffffff1673ffffffffffffffffffffffffffffffffffffffff16815260200190815260200160002081905550600560008281526020019081526020016000208290806001815401808255809150509060018203906000526020600020016000909192909190916101000a81548173ffffffffffffffffffffffffffffffffffffffff021916908373ffffffffffffffffffffffffffffffffffffffff160217905550505050565b6000600160008082825401925050819055506000549050601260009054906101000a900473ffffffffffffffffffffffffffffffffffffffff1673ffffffffffffffffffffffffffffffffffffffff163373ffffffffffffffffffffffffffffffffffffffff1614151561126d576040517f08c379a00000000000000000000000000000000000000000000000000000000081526004018080602001828103825260158152602001807f756e617574686f72697a656420726573706f6e7365000000000000000000000081525060200191505060405180910390fd5b600e54831415156112e6576040517f08c379a00000000000000000000000000000000000000000000000000000000081526004018080602001828103825260178152602001807f6e6f74206d61746368696e67206964207175657269656400000000000000000081525060200191505060405180910390fd5b6000825111151561135f576040517f08c379a00000000000000000000000000000000000000000000000000000000081526004018080602001828103825260148152602001807f6e6f20726573706f6e736520646574656374656400000000000000000000000081525060200191505060405180910390fd5b81600081518110151561136e57fe5b90602001906020020151600d819055506000600d541115156113f8576040517f08c379a000000000000000000000000000000000000000000000000000000000815260040180806020018281038252600f8152602001807f70726963652063616e742062652030000000000000000000000000000000000081525060200191505060405180910390fd5b601560009054906101000a900473ffffffffffffffffffffffffffffffffffffffff1673ffffffffffffffffffffffffffffffffffffffff1663509a57e484600d54336040518463ffffffff167c0100000000000000000000000000000000000000000000000000000000028152600401808481526020018381526020018273ffffffffffffffffffffffffffffffffffffffff1673ffffffffffffffffffffffffffffffffffffffff1681526020019350505050600060405180830381600087803b1580156114c757600080fd5b505af11580156114db573d6000803e3d6000fd5b50505050600954600d5411156114fb576114f66002546117b0565b611524565b600954600d541015611517576115126003546117b0565b611523565b6115226004546117b0565b5b5b6000548114151561153457600080fd5b505050565b60015481565b6060600560008381526020019081526020016000208054806020026020016040519081016040528092919081815260200182805480156115d457602002820191906000526020600020905b8160009054906101000a900473ffffffffffffffffffffffffffffffffffffffff1673ffffffffffffffffffffffffffffffffffffffff168152602001906001019080831161158a575b50505050509050919050565b6000600c60009054906101000a900460ff1615905090565b6060600082600181148061160c5750600081145b8061163657507fffffffffffffffffffffffffffffffffffffffffffffffffffffffffffffffff81145b151561164157600080fd5b600560008581526020019081526020016000208054806020026020016040519081016040528092919081815260200182805480156116d457602002820191906000526020600020905b8160009054906101000a900473ffffffffffffffffffffffffffffffffffffffff1673ffffffffffffffffffffffffffffffffffffffff168152602001906001019080831161168a575b50505050509250600091505b82518210156117aa5782828151811015156116f757fe5b9060200190602002015173ffffffffffffffffffffffffffffffffffffffff166108fc60066000868681518110151561172c57fe5b9060200190602002015173ffffffffffffffffffffffffffffffffffffffff1673ffffffffffffffffffffffffffffffffffffffff168152602001908152602001600020549081150290604051600060405180830381858888f1935050505015801561179c573d6000803e3d6000fd5b5081806001019250506116e0565b50505050565b60606000806000806000806000600560008a815260200190815260200160002080548060200260200160405190810160405280929190818152602001828054801561185057602002820191906000526020600020905b8160009054906101000a900473ffffffffffffffffffffffffffffffffffffffff1673ffffffffffffffffffffffffffffffffffffffff1681526020019060010190808311611806575b5050505050975060009650600094505b87518510156118e1576118d2600660008a8881518110151561187e57fe5b9060200190602002015173ffffffffffffffffffffffffffffffffffffffff1673ffffffffffffffffffffffffffffffffffffffff1681526020019081526020016000205488611b7390919063ffffffff16565b96508480600101955050611860565b863073ffffffffffffffffffffffffffffffffffffffff1631039350600092505b8751831015611a3057878381518110151561191957fe5b9060200190602002015191506119da61198c61197d600660008673ffffffffffffffffffffffffffffffffffffffff1673ffffffffffffffffffffffffffffffffffffffff168152602001908152602001600020548a611b9490919063ffffffff16565b86611b9490919063ffffffff16565b600660008573ffffffffffffffffffffffffffffffffffffffff1673ffffffffffffffffffffffffffffffffffffffff16815260200190815260200160002054611b7390919063ffffffff16565b90508173ffffffffffffffffffffffffffffffffffffffff166108fc829081150290604051600060405180830381858888f19350505050158015611a22573d6000803e3d6000fd5b508280600101935050611902565b601560009054906101000a900473ffffffffffffffffffffffffffffffffffffffff1673ffffffffffffffffffffffffffffffffffffffff1663dde59ba98930600d548b896040518663ffffffff167c010000000000000000000000000000000000000000000000000000000002815260040180806020018673ffffffffffffffffffffffffffffffffffffffff1673ffffffffffffffffffffffffffffffffffffffff168152602001858152602001848152602001838152602001828103825287818151815260200191508051906020019060200280838360005b83811015611b27578082015181840152602081019050611b0c565b505050509050019650505050505050600060405180830381600087803b158015611b5057600080fd5b505af1158015611b64573d6000803e3d6000fd5b50505050505050505050505050565b6000808284019050838110151515611b8a57600080fd5b8091505092915050565b600080600083111515611ba657600080fd5b8284811515611bb157fe5b04905080915050929150505600a165627a7a7230582038e3d431c9be5200282b66a8e36d768a575312358b1223b1192ddb7852c949280029",
  "source": "pragma solidity ^0.4.24;\nimport \"../Ownable.sol\";\nimport \"../ReentrancyGuard.sol\";\nimport \"../SafeMath.sol\";\nimport \"../zap/ZapBridge.sol\";\nimport \"./IpredictFactory.sol\";\n/**\nSimple Price prediction\n\n*/\ncontract PricePredict is  ReentrancyGuard {\n    using SafeMath for uint256;\n\n    bytes32 public id;\n\n    int greater = 1;\n    int smaller = -1;\n    int equal=0;\n\n    struct Oracle{\n        address provider;\n        bytes32 endpoint;\n    }\n\n    modifier validSide(int256 _side){\n        require(_side==1 || _side==0 || _side==-1);\n        _;\n    }\n\n    mapping (int => address[]) sides;\n    mapping (address => uint256) players;\n    address creator;\n    string coin;\n    uint256 price; //eth bet amount\n    uint256 time;\n    uint256 totalAmount;\n    bool settle;\n    uint256 resultPrice;\n    uint256 queryId;\n    address settler;\n    address factory;\n    address bondage;\n    address dispatch;\n    Oracle oracle;\n    IpredictFactory Factory;\n\n\n\n\n    constructor(address _creator,string _coin, uint256 _price, uint256 _time, int _side, address _oracle, bytes32 _endpoint, address _bondage, address _dispatch) public payable {\n        require(msg.value>0,\"Need to send eth to bet to create\");\n        require(_side==1 || _side == 0 || _side == -1,\"invalid side\");\n        require(_time>0,\"time has to be in the future\");\n        coin=_coin;\n        price = _price;\n        time = _time;\n        creator = _creator;\n        oracle = Oracle(_oracle,_endpoint);\n        sides[_side].push(creator);\n        players[creator] = msg.value;\n        bondage = _bondage;\n        dispatch = _dispatch;\n        Factory = IpredictFactory(msg.sender);\n    }\n\n    function joinPrediction(address _player,int side) public payable{\n        require(side==1 || side==0 || side==-1, \"invalid side\");\n        require(_player != creator,\"maker cant take\");\n        require(msg.value>0,\"Need to include eth to take the bet\");\n        require(players[_player] == 0,\"already anticipated\");\n        players[_player] = msg.value;\n        sides[side].push(_player);\n    }\n\n    function getInfo() public view returns (string ,uint256 ,uint256 ,uint256 ,address ,bool ) {\n        return (coin,price,time,address(this).balance, oracle.provider,settle);\n    }\n\n    function getId() public view returns (bytes32){\n        return id;\n    }\n\n    function setId(bytes32 _id) public {\n        id = _id;\n    }\n    function getOracle() public view returns(address,bytes32){\n        return (oracle.provider,oracle.endpoint);\n    }\n\n    function getParticipants() public view  returns (address[], address[], address[]){\n        return (sides[-1],sides[0],sides[1]);\n    }\n\n\n    function getParticipantsNumber() public view returns(uint256){\n        uint256 size = sides[-1].length + sides[0].length + sides[1].length;\n        return size;\n    }\n\n    function getSide(int _side) public view returns(address[]){\n        return sides[_side];\n    }\n\n    function canSettle() public view returns(bool){\n            return !settle; //&& now>time; todo come back and add this back in\n    }\n\n\n    function refund(int256 side) private validSide(side) {\n        address[] memory pars = sides[side];\n        for(uint i=0; i<pars.length; i++){\n            pars[i].transfer(players[pars[i]]);\n        }\n        return;\n    }\n\n    //Anyone can call settle and spend gas on executing this\n    /**\n    Case1 : single player that created the prediction -> refund\n    Case2 : more than 1 players  but all in 1 sides -> refund\n    Case3 : more than 1 players, more than 1 sides:\n     - Contract needs to have 1 dot bonded through delegateBond to settle, if not - > revert\n     - call oracle to get data to settle, whoever call to query provider will have rewards as part of settlement\n    */\n    function settlePrediction() external   returns (uint256){\n        require(address(this).balance>0,\"no eth balance in this contract, cant settle\");\n        require(!settle,\"already settled\");\n        //require(time<now,\"Its not settle time yet\"); TODO test time\n        uint256  pars = getParticipantsNumber();\n        //case 1\n        if(pars<=1){\n            creator.transfer(address(this).balance);\n            //todo kill contract?\n            return 0;\n        }\n        else{\n            (address[] memory greaterSide, address[] memory equalSide, address[] memory smallerSide) = getParticipants();\n            int singleSide;\n            if(pars==smallerSide.length)\n                singleSide = -1 ;\n            else if(pars==equalSide.length)\n                singleSide = 0;\n            else if(pars==greaterSide.length)\n                singleSide = 1;\n            else\n                singleSide= 10;\n\n            //check if case 2\n            if(singleSide<10){\n                refund(singleSide);\n                return 0;\n            }\n            else{\n                bytes32[] memory params = new bytes32[](1);\n                params[0] = bytes32(time);\n                queryId = ZapBridge(dispatch).query(oracle.provider,coin,oracle.endpoint,params);\n                return queryId;\n            }\n        }\n    }\n\n    /**\n    - call back from provider, settle and distribute\n    - response is expected to be single number of price\n    - count player on each side and calculate distribution of winners\n    */\n    function callback(uint256 _id, int[] _response) public nonReentrant {\n        require(msg.sender == dispatch, \"unauthorized response\");\n        require(_id == queryId,\"not matching id queried\");\n        require(_response.length>0, \"no response detected\");\n        resultPrice = uint256(_response[0]);\n        require(resultPrice>0,\"price cant be 0\");\n        Factory.emitCallback(_id,resultPrice,msg.sender);\n        if(resultPrice>price){\n            distribute(greater);\n        }\n        else if(resultPrice<price){\n            distribute(smaller);\n        }\n        else{\n            distribute(equal);\n        }\n    }\n\n    function distribute(int _side) internal {\n        address[] memory winners = sides[_side];\n        uint256 totalAmountWinside = 0;\n        uint256 testWinAmount;\n        for(uint i=0; i<winners.length; i++){\n            totalAmountWinside = totalAmountWinside.add(players[winners[i]]);\n        }\n        uint256 totalAmountLostside = address(this).balance - totalAmountWinside;\n//        if(totalAmountLostside<=0){\n//            //this should never happen\n//            revert();\n//        }else{\n            for(uint j=0; j<winners.length; j++){\n                address winner = winners[j];\n                uint256 winAmount = players[winner].add(totalAmountLostside.div(totalAmountWinside.div(players[winner])));\n                winner.transfer(winAmount);\n            }\n       //     require(address(this).balance==0,\"not fully distributed\");\n     //   }\n        Factory.emitSettled(winners,address(this),resultPrice,totalAmountWinside,totalAmountLostside);\n    }\n}\n",
  "sourcePath": "/home/kim/ZAP/betContracts/contracts/predict/PricePredict.sol",
  "compiler": {
    "name": "solc",
    "version": "0.4.24+commit.e67f0147.Emscripten.clang"
  },
  "schemaVersion": "2.0.1",
  "updatedAt": "2018-10-19T21:51:55.267Z"
}